:100000000C942A001895000018950000189500001F
:10001000189500001895000018950000189500002C
:10002000189500001895000018950000189500001C
:10003000189500001895000018950000189500000C
:1000400018950000189500001895000018950000FC
:10005000189500008FE58DBFC8E3E0E24E2E88E0E2
:100060008EBFD8E0F8E05F2EA89584B7082E877F72
:1000700084BF88E1992781BD91BDEEEFF7E0A0E64E
:10008000B0E088278D933197E9F70E9467026624D4
:10009000D098889889988C9A8D9A8E9ABA98B89A9E
:1000A000B99A8F9A0E944C02E2E3F6E00E94450260
:1000B000E5E0F0E00E945E020E944C020E94DF0236
:1000C000A2E6B0E00D9388278C93A2E6B0E00D91F4
:1000D0001C91003150E0150710F00C947500C09A87
:1000E00084E690E00E940603C098A2E6B0E00D917D
:1000F0001C91033050E0150711F00C94990081E039
:1001000090E0A6E6B0E08D939C930E944C02E0E460
:10011000F6E00E9445028FEB15E00E945B02E2E5EB
:10012000F6E00E944502E1E0F0E00E945E020C94DD
:10013000F900A2E6B0E00D911C910B3050E01507DC
:1001400011F00C94BD0082E090E0A6E6B0E08D9343
:100150009C930E944C02E0E4F6E00E9445028FEB83
:1001600015E00E945B02E8E5F6E00E944502E1E04E
:10017000F0E00E945E020C94F900A2E6B0E00D915E
:100180001C910F3050E0150711F00C94E10080E055
:1001900090E0A6E6B0E08D939C930E944C02E0E4D0
:1001A000F6E00E9445028FEB15E00E945B02E0E65C
:1001B000F6E00E944502E1E0F0E00E945E020C944D
:1001C000F900A2E6B0E00D911C910C3050E015074B
:1001D00011F00C94EE00C0980C94F900A2E6B0E087
:1001E0000D911C910D3050E0150711F00C94F900A1
:1001F000C198A2E6B0E00D911C91043050E01507C3
:1002000011F00C945E010E944C02E6E6F6E00E94BA
:100210004502819B0C9411019698949895980C94A2
:100220005E010E94DF02A2E6B0E00D9388278C9366
:10023000A2E6B0E00D911C91043050E0150711F4D6
:100240000C94280196989498959897980C945E0130
:10025000969A949A9598979A84EF91E00E94060353
:10026000B2990C945C0196989498959897980E94EE
:100270004C02EAE6F6E00E9445028FEB11E00E9494
:100280005B02E8E7F6E00E944502C09A84EF91E045
:100290000E940603979A84EF91E00E940603B29BA6
:1002A0000C945A01C098969A949A9598979A0C949F
:1002B0005C0197980C9445010C940901A2E6B0E00A
:1002C0000D911C91063050E0150711F00C9491012E
:1002D0000E944C02EEE7F6E00E944502809B0C94DF
:1002E00076019698949895980C9491010E94DF025B
:1002F000A2E6B0E00D9388278C93A2E6B0E00D91C2
:100300001C91063050E0150711F40C948C0196985E
:10031000949895980C949101969A9498959A0C9427
:100320006E01C8990C943602A6E6B0E00D911C91BE
:10033000003050E0150711F00C94B2010E944C02FD
:10034000E0E4F6E00E9445028FEB15E00E945B02BC
:10035000E0E6F6E00E944502E1E0F0E00E945E0285
:100360000C943602A6E6B0E00D911C91013050E0ED
:10037000150711F00C94D1010E944C02E0E4F6E064
:100380000E9445028FEB15E00E945B02E2E5F6E079
:100390000E944502E1E0F0E00E945E02C19A0C94E6
:1003A0003602A6E6B0E00D911C91023050E0150730
:1003B00011F00C943602C19A0E944C02E0E4F6E07F
:1003C0000E9445028FEB15E00E945B02E8E5F6E033
:1003D0000E944502E1E0F0E00E945E02C09A819B2B
:1003E0000C94F80196989498959897980C943602E6
:1003F000969A949A9598979AB2990C9434029698F2
:100400009498959897980E944C02EAE6F6E00E942C
:1004100045028FEB11E00E945B02E8E7F6E00E94E4
:100420004502C09A88EC90E00E940603979A84E106
:1004300090E00E940603B29B0C943202C098969AF8
:10044000949A95980E944C02E0E4F6E00E944502DE
:100450008FEB15E00E945B02E8E5F6E00E944502A2
:100460000C9434020C9411020C94EF01C89B0C9470
:100470004102C198C098E1E0F0E00E945E020E9453
:100480004C020C945C00F894FFCF0E941503802D61
:1004900011F065D0FACF089581E067D015D080E8DB
:1004A00064C08FE7213039F08FEB223021F08FE8E4
:1004B000233009F08FEC810F0C94B50288EE93E0A5
:1004C000A5D03197D9F7089583E099279FC08AEF87
:1004D00090E00E940603BC9ABD9ABE9ABF9A8A9A7F
:1004E0008B9A939885E090E00E9406039298C498B6
:1004F000C598C69AC79A929AEF93FF93E4ECF0E0FE
:100500000E94D602FF91EF9192987DD0929AEF933C
:10051000FF93E4ECF0E00E94D602FF91EF919298F5
:1005200072D0929AEF93FF93E4ECF0E00E94D6022F
:10053000FF91EF91929867D0C798929AEF93FF93AB
:10054000E4ECF0E00E94D602FF91EF9192985BD02C
:1005500088E20BD08EE009D086E007D00895939A08
:10056000829505D004D04FD008959398F9CF859502
:1005700010F4C79A01C0C798859510F4C69A01C0B7
:10058000C698859510F4C59A01C0C598859510F454
:10059000C49A01C0C498929AEF93FF93E4ECF0E000
:1005A0000E94D602FF91EF91929808953197F1F74A
:1005B0000895689462F80895E89462F8089500E157
:1005C0008FEF85BB8FE084BB80EF85BB17D09C9BF2
:1005D00000E09D9B04E09E9B08E09F9B0CE080EF69
:1005E00084BB8FE085BB0AD0989B80E0999B81E01B
:1005F0009A9B82E09B9B83E0080F089582E30000B2
:100600008A95E9F7089581E090E000C0EF93FF93A9
:10061000EE27E82BE92B31F0E0EDF7E03197F1F729
:100620000197D1F7FF91EF910895C8953196002079
:1006300008954841564520474F4F442044415900B2
:1006400061637469766520706F6C6C7574696F6E28
:1006500000003530256F6E00313030256F6E0000A0
:1006600030256F6E00007570000064616E67657202
:100670002072696768740000646F6F720000646FB5
:04068000776E000091
:00000001FF
